{
  "_format": "hh-sol-artifact-1",
  "contractName": "WavePortal",
  "sourceName": "contracts/WavePortal.sol",
  "abi": [
    {
      "inputs": [],
      "stateMutability": "payable",
      "type": "constructor"
    },
    {
      "anonymous": false,
      "inputs": [
        {
          "indexed": true,
          "internalType": "address",
          "name": "from",
          "type": "address"
        },
        {
          "indexed": false,
          "internalType": "uint256",
          "name": "timestamp",
          "type": "uint256"
        },
        {
          "indexed": false,
          "internalType": "string",
          "name": "message",
          "type": "string"
        }
      ],
      "name": "NewWave",
      "type": "event"
    },
    {
      "inputs": [],
      "name": "getAllWaves",
      "outputs": [
        {
          "components": [
            {
              "internalType": "address",
              "name": "waver",
              "type": "address"
            },
            {
              "internalType": "string",
              "name": "message",
              "type": "string"
            },
            {
              "internalType": "uint256",
              "name": "timestamp",
              "type": "uint256"
            }
          ],
          "internalType": "struct WavePortal.Wave[]",
          "name": "",
          "type": "tuple[]"
        }
      ],
      "stateMutability": "view",
      "type": "function"
    },
    {
      "inputs": [
        {
          "internalType": "address",
          "name": "",
          "type": "address"
        }
      ],
      "name": "lastWavedAt",
      "outputs": [
        {
          "internalType": "uint256",
          "name": "",
          "type": "uint256"
        }
      ],
      "stateMutability": "view",
      "type": "function"
    },
    {
      "inputs": [],
      "name": "totalWaves",
      "outputs": [
        {
          "internalType": "uint256",
          "name": "",
          "type": "uint256"
        }
      ],
      "stateMutability": "view",
      "type": "function"
    },
    {
      "inputs": [
        {
          "internalType": "string",
          "name": "_message",
          "type": "string"
        }
      ],
      "name": "wave",
      "outputs": [],
      "stateMutability": "nonpayable",
      "type": "function"
    },
    {
      "inputs": [
        {
          "internalType": "address",
          "name": "",
          "type": "address"
        }
      ],
      "name": "wavesByAddress",
      "outputs": [
        {
          "internalType": "uint256",
          "name": "",
          "type": "uint256"
        }
      ],
      "stateMutability": "view",
      "type": "function"
    }
  ],
  "bytecode": "0x6080604052606444426200001491906200002c565b62000020919062000093565b60018190555062000129565b6000620000398262000089565b9150620000468362000089565b9250827fffffffffffffffffffffffffffffffffffffffffffffffffffffffffffffffff038211156200007e576200007d620000cb565b5b828201905092915050565b6000819050919050565b6000620000a08262000089565b9150620000ad8362000089565b925082620000c057620000bf620000fa565b5b828206905092915050565b7f4e487b7100000000000000000000000000000000000000000000000000000000600052601160045260246000fd5b7f4e487b7100000000000000000000000000000000000000000000000000000000600052601260045260246000fd5b61112680620001396000396000f3fe608060405234801561001057600080fd5b50600436106100575760003560e01c8063291bcab31461005c578063449d46c01461007a578063a42a466314610096578063bd43a908146100c6578063e1da7173146100e4575b600080fd5b610064610114565b6040516100719190610ca2565b60405180910390f35b610094600480360381019061008f9190610957565b61011a565b005b6100b060048036038101906100ab919061092e565b61052c565b6040516100bd9190610ca2565b60405180910390f35b6100ce610544565b6040516100db9190610bc0565b60405180910390f35b6100fe60048036038101906100f9919061092e565b610695565b60405161010b9190610ca2565b60405180910390f35b60005481565b42601e600360003373ffffffffffffffffffffffffffffffffffffffff1673ffffffffffffffffffffffffffffffffffffffff168152602001908152602001600020546101679190610db4565b106101a7576040517f08c379a000000000000000000000000000000000000000000000000000000000815260040161019e90610c82565b60405180910390fd5b42600360003373ffffffffffffffffffffffffffffffffffffffff1673ffffffffffffffffffffffffffffffffffffffff1681526020019081526020016000208190555060016000808282546101fd9190610db4565b925050819055506001600260003373ffffffffffffffffffffffffffffffffffffffff1673ffffffffffffffffffffffffffffffffffffffff16815260200190815260200160002060008282546102549190610db4565b92505081905550600460405180606001604052803373ffffffffffffffffffffffffffffffffffffffff16815260200183815260200142815250908060018154018082558091505060019003906000526020600020906003020160009091909190915060008201518160000160006101000a81548173ffffffffffffffffffffffffffffffffffffffff021916908373ffffffffffffffffffffffffffffffffffffffff160217905550602082015181600101908051906020019061031a92919061080e565b50604082015181600201555050606460015442446103389190610db4565b6103429190610db4565b61034c9190610eeb565b6001819055506103936040518060400160405280601681526020017f52616e646f6d20232067656e6572617465643a202564000000000000000000008152506001546106ad565b6032600154116104d9576103dc6040518060400160405280600781526020017f257320776f6e210000000000000000000000000000000000000000000000000081525033610749565b6000655af3107a400090504781111561042a576040517f08c379a000000000000000000000000000000000000000000000000000000000815260040161042190610c42565b60405180910390fd5b60003373ffffffffffffffffffffffffffffffffffffffff168260405161045090610bab565b60006040518083038185875af1925050503d806000811461048d576040519150601f19603f3d011682016040523d82523d6000602084013e610492565b606091505b50509050806104d6576040517f08c379a00000000000000000000000000000000000000000000000000000000081526004016104cd90610c62565b60405180910390fd5b50505b3373ffffffffffffffffffffffffffffffffffffffff167f5f7e16dc676677766a70e9c5628aa6c54ddb8b6e5188e2ae1e1f17f1ffbea7164283604051610521929190610cbd565b60405180910390a250565b60036020528060005260406000206000915090505481565b60606004805480602002602001604051908101604052809291908181526020016000905b8282101561068c57838290600052602060002090600302016040518060600160405290816000820160009054906101000a900473ffffffffffffffffffffffffffffffffffffffff1673ffffffffffffffffffffffffffffffffffffffff1673ffffffffffffffffffffffffffffffffffffffff1681526020016001820180546105f190610e88565b80601f016020809104026020016040519081016040528092919081815260200182805461061d90610e88565b801561066a5780601f1061063f5761010080835404028352916020019161066a565b820191906000526020600020905b81548152906001019060200180831161064d57829003601f168201915b5050505050815260200160028201548152505081526020019060010190610568565b50505050905090565b60026020528060005260406000206000915090505481565b61074582826040516024016106c3929190610c12565b6040516020818303038152906040527f9710a9d0000000000000000000000000000000000000000000000000000000007bffffffffffffffffffffffffffffffffffffffffffffffffffffffff19166020820180517bffffffffffffffffffffffffffffffffffffffffffffffffffffffff83818316178352505050506107e5565b5050565b6107e1828260405160240161075f929190610be2565b6040516020818303038152906040527f319af333000000000000000000000000000000000000000000000000000000007bffffffffffffffffffffffffffffffffffffffffffffffffffffffff19166020820180517bffffffffffffffffffffffffffffffffffffffffffffffffffffffff83818316178352505050506107e5565b5050565b60008151905060006a636f6e736f6c652e6c6f679050602083016000808483855afa5050505050565b82805461081a90610e88565b90600052602060002090601f01602090048101928261083c5760008555610883565b82601f1061085557805160ff1916838001178555610883565b82800160010185558215610883579182015b82811115610882578251825591602001919060010190610867565b5b5090506108909190610894565b5090565b5b808211156108ad576000816000905550600101610895565b5090565b60006108c46108bf84610d12565b610ced565b9050828152602081018484840111156108dc57600080fd5b6108e7848285610e46565b509392505050565b6000813590506108fe816110d9565b92915050565b600082601f83011261091557600080fd5b81356109258482602086016108b1565b91505092915050565b60006020828403121561094057600080fd5b600061094e848285016108ef565b91505092915050565b60006020828403121561096957600080fd5b600082013567ffffffffffffffff81111561098357600080fd5b61098f84828501610904565b91505092915050565b60006109a48383610b3d565b905092915050565b6109b581610e0a565b82525050565b6109c481610e0a565b82525050565b60006109d582610d53565b6109df8185610d76565b9350836020820285016109f185610d43565b8060005b85811015610a2d5784840389528151610a0e8582610998565b9450610a1983610d69565b925060208a019950506001810190506109f5565b50829750879550505050505092915050565b6000610a4a82610d5e565b610a548185610d92565b9350610a64818560208601610e55565b610a6d81610fd8565b840191505092915050565b6000610a8382610d5e565b610a8d8185610da3565b9350610a9d818560208601610e55565b610aa681610fd8565b840191505092915050565b6000610abe603483610da3565b9150610ac982610fe9565b604082019050919050565b6000610ae1602783610da3565b9150610aec82611038565b604082019050919050565b6000610b04602983610da3565b9150610b0f82611087565b604082019050919050565b6000610b27600083610d87565b9150610b32826110d6565b600082019050919050565b6000606083016000830151610b5560008601826109ac565b5060208301518482036020860152610b6d8282610a3f565b9150506040830151610b826040860182610b8d565b508091505092915050565b610b9681610e3c565b82525050565b610ba581610e3c565b82525050565b6000610bb682610b1a565b9150819050919050565b60006020820190508181036000830152610bda81846109ca565b905092915050565b60006040820190508181036000830152610bfc8185610a78565b9050610c0b60208301846109bb565b9392505050565b60006040820190508181036000830152610c2c8185610a78565b9050610c3b6020830184610b9c565b9392505050565b60006020820190508181036000830152610c5b81610ab1565b9050919050565b60006020820190508181036000830152610c7b81610ad4565b9050919050565b60006020820190508181036000830152610c9b81610af7565b9050919050565b6000602082019050610cb76000830184610b9c565b92915050565b6000604082019050610cd26000830185610b9c565b8181036020830152610ce48184610a78565b90509392505050565b6000610cf7610d08565b9050610d038282610eba565b919050565b6000604051905090565b600067ffffffffffffffff821115610d2d57610d2c610fa9565b5b610d3682610fd8565b9050602081019050919050565b6000819050602082019050919050565b600081519050919050565b600081519050919050565b6000602082019050919050565b600082825260208201905092915050565b600081905092915050565b600082825260208201905092915050565b600082825260208201905092915050565b6000610dbf82610e3c565b9150610dca83610e3c565b9250827fffffffffffffffffffffffffffffffffffffffffffffffffffffffffffffffff03821115610dff57610dfe610f1c565b5b828201905092915050565b6000610e1582610e1c565b9050919050565b600073ffffffffffffffffffffffffffffffffffffffff82169050919050565b6000819050919050565b82818337600083830152505050565b60005b83811015610e73578082015181840152602081019050610e58565b83811115610e82576000848401525b50505050565b60006002820490506001821680610ea057607f821691505b60208210811415610eb457610eb3610f7a565b5b50919050565b610ec382610fd8565b810181811067ffffffffffffffff82111715610ee257610ee1610fa9565b5b80604052505050565b6000610ef682610e3c565b9150610f0183610e3c565b925082610f1157610f10610f4b565b5b828206905092915050565b7f4e487b7100000000000000000000000000000000000000000000000000000000600052601160045260246000fd5b7f4e487b7100000000000000000000000000000000000000000000000000000000600052601260045260246000fd5b7f4e487b7100000000000000000000000000000000000000000000000000000000600052602260045260246000fd5b7f4e487b7100000000000000000000000000000000000000000000000000000000600052604160045260246000fd5b6000601f19601f8301169050919050565b7f547279696e6720746f207769746864726177206d6f7265206d6f6e657920746860008201527f616e2074686520636f6e7472616374206861732e000000000000000000000000602082015250565b7f4661696c656420746f207769746864726177206d6f6e65792066726f6d20636f60008201527f6e74726163742e00000000000000000000000000000000000000000000000000602082015250565b7f4d7573742077616974203330207365636f6e6473206265666f7265207761766960008201527f6e6720616761696e2e0000000000000000000000000000000000000000000000602082015250565b50565b6110e281610e0a565b81146110ed57600080fd5b5056fea2646970667358221220c9ae0d82ca4a87f90f768d57e9902dfa7ed1c943df1dd800fa1bdd5a62f6088864736f6c63430008040033",
  "linkReferences": {},
  "deployedLinkReferences": {}
}