{
  "_format": "hh-sol-artifact-1",
  "contractName": "WavePortal",
  "sourceName": "contracts/WavePortal.sol",
  "abi": [
    {
      "inputs": [],
      "stateMutability": "payable",
      "type": "constructor"
    },
    {
      "anonymous": false,
      "inputs": [
        {
          "indexed": true,
          "internalType": "address",
          "name": "from",
          "type": "address"
        },
        {
          "indexed": false,
          "internalType": "uint256",
          "name": "timestamp",
          "type": "uint256"
        },
        {
          "indexed": false,
          "internalType": "string",
          "name": "message",
          "type": "string"
        }
      ],
      "name": "NewWave",
      "type": "event"
    },
    {
      "inputs": [],
      "name": "getAllWaves",
      "outputs": [
        {
          "components": [
            {
              "internalType": "address",
              "name": "waver",
              "type": "address"
            },
            {
              "internalType": "string",
              "name": "message",
              "type": "string"
            },
            {
              "internalType": "uint256",
              "name": "timestamp",
              "type": "uint256"
            }
          ],
          "internalType": "struct WavePortal.Wave[]",
          "name": "",
          "type": "tuple[]"
        }
      ],
      "stateMutability": "view",
      "type": "function"
    },
    {
      "inputs": [
        {
          "internalType": "address",
          "name": "",
          "type": "address"
        }
      ],
      "name": "lastWavedAt",
      "outputs": [
        {
          "internalType": "uint256",
          "name": "",
          "type": "uint256"
        }
      ],
      "stateMutability": "view",
      "type": "function"
    },
    {
      "inputs": [],
      "name": "totalWaves",
      "outputs": [
        {
          "internalType": "uint256",
          "name": "",
          "type": "uint256"
        }
      ],
      "stateMutability": "view",
      "type": "function"
    },
    {
      "inputs": [
        {
          "internalType": "string",
          "name": "_message",
          "type": "string"
        }
      ],
      "name": "wave",
      "outputs": [],
      "stateMutability": "nonpayable",
      "type": "function"
    },
    {
      "inputs": [
        {
          "internalType": "address",
          "name": "",
          "type": "address"
        }
      ],
      "name": "wavesByAddress",
      "outputs": [
        {
          "internalType": "uint256",
          "name": "",
          "type": "uint256"
        }
      ],
      "stateMutability": "view",
      "type": "function"
    }
  ],
  "bytecode": "0x6080604052606444426200001491906200002c565b62000020919062000093565b60018190555062000129565b6000620000398262000089565b9150620000468362000089565b9250827fffffffffffffffffffffffffffffffffffffffffffffffffffffffffffffffff038211156200007e576200007d620000cb565b5b828201905092915050565b6000819050919050565b6000620000a08262000089565b9150620000ad8362000089565b925082620000c057620000bf620000fa565b5b828206905092915050565b7f4e487b7100000000000000000000000000000000000000000000000000000000600052601160045260246000fd5b7f4e487b7100000000000000000000000000000000000000000000000000000000600052601260045260246000fd5b61110180620001396000396000f3fe608060405234801561001057600080fd5b50600436106100575760003560e01c8063291bcab31461005c578063449d46c01461007a578063a42a466314610096578063bd43a908146100c6578063e1da7173146100e4575b600080fd5b610064610114565b6040516100719190610ca3565b60405180910390f35b610094600480360381019061008f9190610958565b61011a565b005b6100b060048036038101906100ab919061092f565b61052d565b6040516100bd9190610ca3565b60405180910390f35b6100ce610545565b6040516100db9190610bc1565b60405180910390f35b6100fe60048036038101906100f9919061092f565b610696565b60405161010b9190610ca3565b60405180910390f35b60005481565b42610384600360003373ffffffffffffffffffffffffffffffffffffffff1673ffffffffffffffffffffffffffffffffffffffff168152602001908152602001600020546101689190610db5565b106101a8576040517f08c379a000000000000000000000000000000000000000000000000000000000815260040161019f90610c83565b60405180910390fd5b42600360003373ffffffffffffffffffffffffffffffffffffffff1673ffffffffffffffffffffffffffffffffffffffff1681526020019081526020016000208190555060016000808282546101fe9190610db5565b925050819055506001600260003373ffffffffffffffffffffffffffffffffffffffff1673ffffffffffffffffffffffffffffffffffffffff16815260200190815260200160002060008282546102559190610db5565b92505081905550600460405180606001604052803373ffffffffffffffffffffffffffffffffffffffff16815260200183815260200142815250908060018154018082558091505060019003906000526020600020906003020160009091909190915060008201518160000160006101000a81548173ffffffffffffffffffffffffffffffffffffffff021916908373ffffffffffffffffffffffffffffffffffffffff160217905550602082015181600101908051906020019061031b92919061080f565b50604082015181600201555050606460015442446103399190610db5565b6103439190610db5565b61034d9190610eec565b6001819055506103946040518060400160405280601681526020017f52616e646f6d20232067656e6572617465643a202564000000000000000000008152506001546106ae565b6032600154116104da576103dd6040518060400160405280600781526020017f257320776f6e21000000000000000000000000000000000000000000000000008152503361074a565b6000655af3107a400090504781111561042b576040517f08c379a000000000000000000000000000000000000000000000000000000000815260040161042290610c43565b60405180910390fd5b60003373ffffffffffffffffffffffffffffffffffffffff168260405161045190610bac565b60006040518083038185875af1925050503d806000811461048e576040519150601f19603f3d011682016040523d82523d6000602084013e610493565b606091505b50509050806104d7576040517f08c379a00000000000000000000000000000000000000000000000000000000081526004016104ce90610c63565b60405180910390fd5b50505b3373ffffffffffffffffffffffffffffffffffffffff167f5f7e16dc676677766a70e9c5628aa6c54ddb8b6e5188e2ae1e1f17f1ffbea7164283604051610522929190610cbe565b60405180910390a250565b60036020528060005260406000206000915090505481565b60606004805480602002602001604051908101604052809291908181526020016000905b8282101561068d57838290600052602060002090600302016040518060600160405290816000820160009054906101000a900473ffffffffffffffffffffffffffffffffffffffff1673ffffffffffffffffffffffffffffffffffffffff1673ffffffffffffffffffffffffffffffffffffffff1681526020016001820180546105f290610e89565b80601f016020809104026020016040519081016040528092919081815260200182805461061e90610e89565b801561066b5780601f106106405761010080835404028352916020019161066b565b820191906000526020600020905b81548152906001019060200180831161064e57829003601f168201915b5050505050815260200160028201548152505081526020019060010190610569565b50505050905090565b60026020528060005260406000206000915090505481565b61074682826040516024016106c4929190610c13565b6040516020818303038152906040527f9710a9d0000000000000000000000000000000000000000000000000000000007bffffffffffffffffffffffffffffffffffffffffffffffffffffffff19166020820180517bffffffffffffffffffffffffffffffffffffffffffffffffffffffff83818316178352505050506107e6565b5050565b6107e28282604051602401610760929190610be3565b6040516020818303038152906040527f319af333000000000000000000000000000000000000000000000000000000007bffffffffffffffffffffffffffffffffffffffffffffffffffffffff19166020820180517bffffffffffffffffffffffffffffffffffffffffffffffffffffffff83818316178352505050506107e6565b5050565b60008151905060006a636f6e736f6c652e6c6f679050602083016000808483855afa5050505050565b82805461081b90610e89565b90600052602060002090601f01602090048101928261083d5760008555610884565b82601f1061085657805160ff1916838001178555610884565b82800160010185558215610884579182015b82811115610883578251825591602001919060010190610868565b5b5090506108919190610895565b5090565b5b808211156108ae576000816000905550600101610896565b5090565b60006108c56108c084610d13565b610cee565b9050828152602081018484840111156108dd57600080fd5b6108e8848285610e47565b509392505050565b6000813590506108ff816110b4565b92915050565b600082601f83011261091657600080fd5b81356109268482602086016108b2565b91505092915050565b60006020828403121561094157600080fd5b600061094f848285016108f0565b91505092915050565b60006020828403121561096a57600080fd5b600082013567ffffffffffffffff81111561098457600080fd5b61099084828501610905565b91505092915050565b60006109a58383610b3e565b905092915050565b6109b681610e0b565b82525050565b6109c581610e0b565b82525050565b60006109d682610d54565b6109e08185610d77565b9350836020820285016109f285610d44565b8060005b85811015610a2e5784840389528151610a0f8582610999565b9450610a1a83610d6a565b925060208a019950506001810190506109f6565b50829750879550505050505092915050565b6000610a4b82610d5f565b610a558185610d93565b9350610a65818560208601610e56565b610a6e81610fd9565b840191505092915050565b6000610a8482610d5f565b610a8e8185610da4565b9350610a9e818560208601610e56565b610aa781610fd9565b840191505092915050565b6000610abf603483610da4565b9150610aca82610fea565b604082019050919050565b6000610ae2602783610da4565b9150610aed82611039565b604082019050919050565b6000610b05600083610d88565b9150610b1082611088565b600082019050919050565b6000610b28600883610da4565b9150610b338261108b565b602082019050919050565b6000606083016000830151610b5660008601826109ad565b5060208301518482036020860152610b6e8282610a40565b9150506040830151610b836040860182610b8e565b508091505092915050565b610b9781610e3d565b82525050565b610ba681610e3d565b82525050565b6000610bb782610af8565b9150819050919050565b60006020820190508181036000830152610bdb81846109cb565b905092915050565b60006040820190508181036000830152610bfd8185610a79565b9050610c0c60208301846109bc565b9392505050565b60006040820190508181036000830152610c2d8185610a79565b9050610c3c6020830184610b9d565b9392505050565b60006020820190508181036000830152610c5c81610ab2565b9050919050565b60006020820190508181036000830152610c7c81610ad5565b9050919050565b60006020820190508181036000830152610c9c81610b1b565b9050919050565b6000602082019050610cb86000830184610b9d565b92915050565b6000604082019050610cd36000830185610b9d565b8181036020830152610ce58184610a79565b90509392505050565b6000610cf8610d09565b9050610d048282610ebb565b919050565b6000604051905090565b600067ffffffffffffffff821115610d2e57610d2d610faa565b5b610d3782610fd9565b9050602081019050919050565b6000819050602082019050919050565b600081519050919050565b600081519050919050565b6000602082019050919050565b600082825260208201905092915050565b600081905092915050565b600082825260208201905092915050565b600082825260208201905092915050565b6000610dc082610e3d565b9150610dcb83610e3d565b9250827fffffffffffffffffffffffffffffffffffffffffffffffffffffffffffffffff03821115610e0057610dff610f1d565b5b828201905092915050565b6000610e1682610e1d565b9050919050565b600073ffffffffffffffffffffffffffffffffffffffff82169050919050565b6000819050919050565b82818337600083830152505050565b60005b83811015610e74578082015181840152602081019050610e59565b83811115610e83576000848401525b50505050565b60006002820490506001821680610ea157607f821691505b60208210811415610eb557610eb4610f7b565b5b50919050565b610ec482610fd9565b810181811067ffffffffffffffff82111715610ee357610ee2610faa565b5b80604052505050565b6000610ef782610e3d565b9150610f0283610e3d565b925082610f1257610f11610f4c565b5b828206905092915050565b7f4e487b7100000000000000000000000000000000000000000000000000000000600052601160045260246000fd5b7f4e487b7100000000000000000000000000000000000000000000000000000000600052601260045260246000fd5b7f4e487b7100000000000000000000000000000000000000000000000000000000600052602260045260246000fd5b7f4e487b7100000000000000000000000000000000000000000000000000000000600052604160045260246000fd5b6000601f19601f8301169050919050565b7f547279696e6720746f207769746864726177206d6f7265206d6f6e657920746860008201527f616e2074686520636f6e7472616374206861732e000000000000000000000000602082015250565b7f4661696c656420746f207769746864726177206d6f6e65792066726f6d20636f60008201527f6e74726163742e00000000000000000000000000000000000000000000000000602082015250565b50565b7f576169742031356d000000000000000000000000000000000000000000000000600082015250565b6110bd81610e0b565b81146110c857600080fd5b5056fea2646970667358221220bbc123b892767bae917011c646e1847c86515ee4fc623a9fb7b296b43cba67b264736f6c63430008040033",
  "linkReferences": {},
  "deployedLinkReferences": {}
}