{
  "_format": "hh-sol-artifact-1",
  "contractName": "WavePortal",
  "sourceName": "contracts/WavePortal.sol",
  "abi": [
    {
      "inputs": [],
      "stateMutability": "payable",
      "type": "constructor"
    },
    {
      "anonymous": false,
      "inputs": [
        {
          "indexed": true,
          "internalType": "address",
          "name": "from",
          "type": "address"
        },
        {
          "indexed": false,
          "internalType": "uint256",
          "name": "timestamp",
          "type": "uint256"
        },
        {
          "indexed": false,
          "internalType": "string",
          "name": "message",
          "type": "string"
        }
      ],
      "name": "NewWave",
      "type": "event"
    },
    {
      "inputs": [],
      "name": "getAllWaves",
      "outputs": [
        {
          "components": [
            {
              "internalType": "address",
              "name": "waver",
              "type": "address"
            },
            {
              "internalType": "string",
              "name": "message",
              "type": "string"
            },
            {
              "internalType": "uint256",
              "name": "timestamp",
              "type": "uint256"
            }
          ],
          "internalType": "struct WavePortal.Wave[]",
          "name": "",
          "type": "tuple[]"
        }
      ],
      "stateMutability": "view",
      "type": "function"
    },
    {
      "inputs": [],
      "name": "totalWaves",
      "outputs": [
        {
          "internalType": "uint256",
          "name": "",
          "type": "uint256"
        }
      ],
      "stateMutability": "view",
      "type": "function"
    },
    {
      "inputs": [
        {
          "internalType": "string",
          "name": "_message",
          "type": "string"
        }
      ],
      "name": "wave",
      "outputs": [],
      "stateMutability": "nonpayable",
      "type": "function"
    },
    {
      "inputs": [
        {
          "internalType": "address",
          "name": "",
          "type": "address"
        }
      ],
      "name": "wavesByAddress",
      "outputs": [
        {
          "internalType": "uint256",
          "name": "",
          "type": "uint256"
        }
      ],
      "stateMutability": "view",
      "type": "function"
    }
  ],
  "bytecode": "0x6080604052610c89806100136000396000f3fe608060405234801561001057600080fd5b506004361061004c5760003560e01c8063291bcab314610051578063449d46c01461006f578063bd43a9081461008b578063e1da7173146100a9575b600080fd5b6100596100d9565b60405161006691906108b4565b60405180910390f35b6100896004803603810190610084919061061b565b6100df565b005b610093610369565b6040516100a09190610852565b60405180910390f35b6100c360048036038101906100be91906105f2565b6104ba565b6040516100d091906108b4565b60405180910390f35b60005481565b60016000808282546100f191906109c6565b9250508190555060018060003373ffffffffffffffffffffffffffffffffffffffff1673ffffffffffffffffffffffffffffffffffffffff168152602001908152602001600020600082825461014791906109c6565b92505081905550600260405180606001604052803373ffffffffffffffffffffffffffffffffffffffff16815260200183815260200142815250908060018154018082558091505060019003906000526020600020906003020160009091909190915060008201518160000160006101000a81548173ffffffffffffffffffffffffffffffffffffffff021916908373ffffffffffffffffffffffffffffffffffffffff160217905550602082015181600101908051906020019061020d9291906104d2565b506040820151816002015550503373ffffffffffffffffffffffffffffffffffffffff167f5f7e16dc676677766a70e9c5628aa6c54ddb8b6e5188e2ae1e1f17f1ffbea71642836040516102629291906108cf565b60405180910390a26000655af3107a40009050478111156102b8576040517f08c379a00000000000000000000000000000000000000000000000000000000081526004016102af90610874565b60405180910390fd5b60003373ffffffffffffffffffffffffffffffffffffffff16826040516102de9061083d565b60006040518083038185875af1925050503d806000811461031b576040519150601f19603f3d011682016040523d82523d6000602084013e610320565b606091505b5050905080610364576040517f08c379a000000000000000000000000000000000000000000000000000000000815260040161035b90610894565b60405180910390fd5b505050565b60606002805480602002602001604051908101604052809291908181526020016000905b828210156104b157838290600052602060002090600302016040518060600160405290816000820160009054906101000a900473ffffffffffffffffffffffffffffffffffffffff1673ffffffffffffffffffffffffffffffffffffffff1673ffffffffffffffffffffffffffffffffffffffff16815260200160018201805461041690610a9a565b80601f016020809104026020016040519081016040528092919081815260200182805461044290610a9a565b801561048f5780601f106104645761010080835404028352916020019161048f565b820191906000526020600020905b81548152906001019060200180831161047257829003601f168201915b505050505081526020016002820154815250508152602001906001019061038d565b50505050905090565b60016020528060005260406000206000915090505481565b8280546104de90610a9a565b90600052602060002090601f0160209004810192826105005760008555610547565b82601f1061051957805160ff1916838001178555610547565b82800160010185558215610547579182015b8281111561054657825182559160200191906001019061052b565b5b5090506105549190610558565b5090565b5b80821115610571576000816000905550600101610559565b5090565b600061058861058384610924565b6108ff565b9050828152602081018484840111156105a057600080fd5b6105ab848285610a58565b509392505050565b6000813590506105c281610c3c565b92915050565b600082601f8301126105d957600080fd5b81356105e9848260208601610575565b91505092915050565b60006020828403121561060457600080fd5b6000610612848285016105b3565b91505092915050565b60006020828403121561062d57600080fd5b600082013567ffffffffffffffff81111561064757600080fd5b610653848285016105c8565b91505092915050565b600061066883836107cf565b905092915050565b61067981610a1c565b82525050565b600061068a82610965565b6106948185610988565b9350836020820285016106a685610955565b8060005b858110156106e257848403895281516106c3858261065c565b94506106ce8361097b565b925060208a019950506001810190506106aa565b50829750879550505050505092915050565b60006106ff82610970565b61070981856109a4565b9350610719818560208601610a67565b61072281610b8a565b840191505092915050565b600061073882610970565b61074281856109b5565b9350610752818560208601610a67565b61075b81610b8a565b840191505092915050565b60006107736034836109b5565b915061077e82610b9b565b604082019050919050565b60006107966027836109b5565b91506107a182610bea565b604082019050919050565b60006107b9600083610999565b91506107c482610c39565b600082019050919050565b60006060830160008301516107e76000860182610670565b50602083015184820360208601526107ff82826106f4565b9150506040830151610814604086018261081f565b508091505092915050565b61082881610a4e565b82525050565b61083781610a4e565b82525050565b6000610848826107ac565b9150819050919050565b6000602082019050818103600083015261086c818461067f565b905092915050565b6000602082019050818103600083015261088d81610766565b9050919050565b600060208201905081810360008301526108ad81610789565b9050919050565b60006020820190506108c9600083018461082e565b92915050565b60006040820190506108e4600083018561082e565b81810360208301526108f6818461072d565b90509392505050565b600061090961091a565b90506109158282610acc565b919050565b6000604051905090565b600067ffffffffffffffff82111561093f5761093e610b5b565b5b61094882610b8a565b9050602081019050919050565b6000819050602082019050919050565b600081519050919050565b600081519050919050565b6000602082019050919050565b600082825260208201905092915050565b600081905092915050565b600082825260208201905092915050565b600082825260208201905092915050565b60006109d182610a4e565b91506109dc83610a4e565b9250827fffffffffffffffffffffffffffffffffffffffffffffffffffffffffffffffff03821115610a1157610a10610afd565b5b828201905092915050565b6000610a2782610a2e565b9050919050565b600073ffffffffffffffffffffffffffffffffffffffff82169050919050565b6000819050919050565b82818337600083830152505050565b60005b83811015610a85578082015181840152602081019050610a6a565b83811115610a94576000848401525b50505050565b60006002820490506001821680610ab257607f821691505b60208210811415610ac657610ac5610b2c565b5b50919050565b610ad582610b8a565b810181811067ffffffffffffffff82111715610af457610af3610b5b565b5b80604052505050565b7f4e487b7100000000000000000000000000000000000000000000000000000000600052601160045260246000fd5b7f4e487b7100000000000000000000000000000000000000000000000000000000600052602260045260246000fd5b7f4e487b7100000000000000000000000000000000000000000000000000000000600052604160045260246000fd5b6000601f19601f8301169050919050565b7f547279696e6720746f207769746864726177206d6f7265206d6f6e657920746860008201527f616e2074686520636f6e7472616374206861732e000000000000000000000000602082015250565b7f4661696c656420746f207769746864726177206d6f6e65792066726f6d20636f60008201527f6e74726163742e00000000000000000000000000000000000000000000000000602082015250565b50565b610c4581610a1c565b8114610c5057600080fd5b5056fea2646970667358221220c05422030ad5f739d333b9e4be09a31227d711807fc563b469a833479bbbc7e464736f6c63430008040033",
  "linkReferences": {},
  "deployedLinkReferences": {}
}