{
  "_format": "hh-sol-artifact-1",
  "contractName": "WavePortal",
  "sourceName": "contracts/WavePortal.sol",
  "abi": [
    {
      "anonymous": false,
      "inputs": [
        {
          "indexed": true,
          "internalType": "address",
          "name": "from",
          "type": "address"
        },
        {
          "indexed": false,
          "internalType": "uint256",
          "name": "timestamp",
          "type": "uint256"
        },
        {
          "indexed": false,
          "internalType": "string",
          "name": "message",
          "type": "string"
        }
      ],
      "name": "NewWave",
      "type": "event"
    },
    {
      "inputs": [],
      "name": "getAllWaves",
      "outputs": [
        {
          "components": [
            {
              "internalType": "address",
              "name": "waver",
              "type": "address"
            },
            {
              "internalType": "string",
              "name": "message",
              "type": "string"
            },
            {
              "internalType": "uint256",
              "name": "timestamp",
              "type": "uint256"
            }
          ],
          "internalType": "struct WavePortal.Wave[]",
          "name": "",
          "type": "tuple[]"
        }
      ],
      "stateMutability": "view",
      "type": "function"
    },
    {
      "inputs": [],
      "name": "totalWaves",
      "outputs": [
        {
          "internalType": "uint256",
          "name": "",
          "type": "uint256"
        }
      ],
      "stateMutability": "view",
      "type": "function"
    },
    {
      "inputs": [
        {
          "internalType": "string",
          "name": "_message",
          "type": "string"
        }
      ],
      "name": "wave",
      "outputs": [],
      "stateMutability": "nonpayable",
      "type": "function"
    },
    {
      "inputs": [
        {
          "internalType": "address",
          "name": "",
          "type": "address"
        }
      ],
      "name": "wavesByAddress",
      "outputs": [
        {
          "internalType": "uint256",
          "name": "",
          "type": "uint256"
        }
      ],
      "stateMutability": "view",
      "type": "function"
    }
  ],
  "bytecode": "0x608060405234801561001057600080fd5b50610a23806100206000396000f3fe608060405234801561001057600080fd5b506004361061004c5760003560e01c8063291bcab314610051578063449d46c01461006f578063bd43a9081461008b578063e1da7173146100a9575b600080fd5b6100596100d9565b60405161006691906106fa565b60405180910390f35b6100896004803603810190610084919061051f565b6100df565b005b61009361026d565b6040516100a091906106d8565b60405180910390f35b6100c360048036038101906100be91906104f6565b6103be565b6040516100d091906106fa565b60405180910390f35b60005481565b60016000808282546100f19190610801565b9250508190555060018060003373ffffffffffffffffffffffffffffffffffffffff1673ffffffffffffffffffffffffffffffffffffffff16815260200190815260200160002060008282546101479190610801565b92505081905550600260405180606001604052803373ffffffffffffffffffffffffffffffffffffffff16815260200183815260200142815250908060018154018082558091505060019003906000526020600020906003020160009091909190915060008201518160000160006101000a81548173ffffffffffffffffffffffffffffffffffffffff021916908373ffffffffffffffffffffffffffffffffffffffff160217905550602082015181600101908051906020019061020d9291906103d6565b506040820151816002015550503373ffffffffffffffffffffffffffffffffffffffff167f5f7e16dc676677766a70e9c5628aa6c54ddb8b6e5188e2ae1e1f17f1ffbea7164283604051610262929190610715565b60405180910390a250565b60606002805480602002602001604051908101604052809291908181526020016000905b828210156103b557838290600052602060002090600302016040518060600160405290816000820160009054906101000a900473ffffffffffffffffffffffffffffffffffffffff1673ffffffffffffffffffffffffffffffffffffffff1673ffffffffffffffffffffffffffffffffffffffff16815260200160018201805461031a906108d5565b80601f0160208091040260200160405190810160405280929190818152602001828054610346906108d5565b80156103935780601f1061036857610100808354040283529160200191610393565b820191906000526020600020905b81548152906001019060200180831161037657829003601f168201915b5050505050815260200160028201548152505081526020019060010190610291565b50505050905090565b60016020528060005260406000206000915090505481565b8280546103e2906108d5565b90600052602060002090601f016020900481019282610404576000855561044b565b82601f1061041d57805160ff191683800117855561044b565b8280016001018555821561044b579182015b8281111561044a57825182559160200191906001019061042f565b5b509050610458919061045c565b5090565b5b8082111561047557600081600090555060010161045d565b5090565b600061048c6104878461076a565b610745565b9050828152602081018484840111156104a457600080fd5b6104af848285610893565b509392505050565b6000813590506104c6816109d6565b92915050565b600082601f8301126104dd57600080fd5b81356104ed848260208601610479565b91505092915050565b60006020828403121561050857600080fd5b6000610516848285016104b7565b91505092915050565b60006020828403121561053157600080fd5b600082013567ffffffffffffffff81111561054b57600080fd5b610557848285016104cc565b91505092915050565b600061056c838361066a565b905092915050565b61057d81610857565b82525050565b600061058e826107ab565b61059881856107ce565b9350836020820285016105aa8561079b565b8060005b858110156105e657848403895281516105c78582610560565b94506105d2836107c1565b925060208a019950506001810190506105ae565b50829750879550505050505092915050565b6000610603826107b6565b61060d81856107df565b935061061d8185602086016108a2565b610626816109c5565b840191505092915050565b600061063c826107b6565b61064681856107f0565b93506106568185602086016108a2565b61065f816109c5565b840191505092915050565b60006060830160008301516106826000860182610574565b506020830151848203602086015261069a82826105f8565b91505060408301516106af60408601826106ba565b508091505092915050565b6106c381610889565b82525050565b6106d281610889565b82525050565b600060208201905081810360008301526106f28184610583565b905092915050565b600060208201905061070f60008301846106c9565b92915050565b600060408201905061072a60008301856106c9565b818103602083015261073c8184610631565b90509392505050565b600061074f610760565b905061075b8282610907565b919050565b6000604051905090565b600067ffffffffffffffff82111561078557610784610996565b5b61078e826109c5565b9050602081019050919050565b6000819050602082019050919050565b600081519050919050565b600081519050919050565b6000602082019050919050565b600082825260208201905092915050565b600082825260208201905092915050565b600082825260208201905092915050565b600061080c82610889565b915061081783610889565b9250827fffffffffffffffffffffffffffffffffffffffffffffffffffffffffffffffff0382111561084c5761084b610938565b5b828201905092915050565b600061086282610869565b9050919050565b600073ffffffffffffffffffffffffffffffffffffffff82169050919050565b6000819050919050565b82818337600083830152505050565b60005b838110156108c05780820151818401526020810190506108a5565b838111156108cf576000848401525b50505050565b600060028204905060018216806108ed57607f821691505b6020821081141561090157610900610967565b5b50919050565b610910826109c5565b810181811067ffffffffffffffff8211171561092f5761092e610996565b5b80604052505050565b7f4e487b7100000000000000000000000000000000000000000000000000000000600052601160045260246000fd5b7f4e487b7100000000000000000000000000000000000000000000000000000000600052602260045260246000fd5b7f4e487b7100000000000000000000000000000000000000000000000000000000600052604160045260246000fd5b6000601f19601f8301169050919050565b6109df81610857565b81146109ea57600080fd5b5056fea2646970667358221220eff2c26f92fcdc619a5eac617b5809a857b5bb7a052a52ab83005c050194612d64736f6c63430008040033",
  "linkReferences": {},
  "deployedLinkReferences": {}
}