{
  "_format": "hh-sol-artifact-1",
  "contractName": "WavePortal",
  "sourceName": "contracts/WavePortal.sol",
  "abi": [
    {
      "inputs": [],
      "name": "totalWaves",
      "outputs": [
        {
          "internalType": "uint256",
          "name": "",
          "type": "uint256"
        }
      ],
      "stateMutability": "view",
      "type": "function"
    },
    {
      "inputs": [],
      "name": "wave",
      "outputs": [],
      "stateMutability": "nonpayable",
      "type": "function"
    },
    {
      "inputs": [
        {
          "internalType": "address",
          "name": "",
          "type": "address"
        }
      ],
      "name": "wavesByAddress",
      "outputs": [
        {
          "internalType": "uint256",
          "name": "",
          "type": "uint256"
        }
      ],
      "stateMutability": "view",
      "type": "function"
    }
  ],
  "bytecode": "0x608060405234801561001057600080fd5b506102a3806100206000396000f3fe608060405234801561001057600080fd5b50600436106100415760003560e01c8063291bcab3146100465780636fe15b4414610064578063e1da71731461006e575b600080fd5b61004e61009e565b60405161005b919061017a565b60405180910390f35b61006c6100a4565b005b61008860048036038101906100839190610142565b610115565b604051610095919061017a565b60405180910390f35b60005481565b60016000808282546100b69190610195565b9250508190555060018060003373ffffffffffffffffffffffffffffffffffffffff1673ffffffffffffffffffffffffffffffffffffffff168152602001908152602001600020600082825461010c9190610195565b92505081905550565b60016020528060005260406000206000915090505481565b60008135905061013c81610256565b92915050565b60006020828403121561015457600080fd5b60006101628482850161012d565b91505092915050565b6101748161021d565b82525050565b600060208201905061018f600083018461016b565b92915050565b60006101a08261021d565b91506101ab8361021d565b9250827fffffffffffffffffffffffffffffffffffffffffffffffffffffffffffffffff038211156101e0576101df610227565b5b828201905092915050565b60006101f6826101fd565b9050919050565b600073ffffffffffffffffffffffffffffffffffffffff82169050919050565b6000819050919050565b7f4e487b7100000000000000000000000000000000000000000000000000000000600052601160045260246000fd5b61025f816101eb565b811461026a57600080fd5b5056fea264697066735822122040f05e51800b3cfe51269f47ac85ab9870c1d15939f9b7036926800231192b8f64736f6c63430008040033",
  "linkReferences": {},
  "deployedLinkReferences": {}
}